:100000000C9463000C948B000C948B000C948B006C
:100010000C948B000C948B000C948B000C94C402F9
:100020000C948B000C948B000C948B000C948B0024
:100030000C948B000C948B000C948B000C948B0014
:100040000C9478030C948B000C9446030C942003BE
:100050000C948B000C948B000C948B000C948B00F4
:100060000C948B000C948B000000000024002700EF
:100070002A000000000023002600290000000008DC
:10008000000201000003040700000000000000005F
:10009000010204081020408001020408102001021F
:1000A0000408102000000000250028002B00040494
:1000B0000404040404040202020202020303030310
:1000C00003030200D70511241FBECFEFD8E0DEBF27
:1000D000CDBF11E0A0E0B1E0ECE5FCE002C005908E
:1000E0000D92A636B107D9F722E0A6E6B1E001C02D
:1000F0001D92AF31B207E1F710E0C3E6D0E004C0D3
:100100002197FE010E942606C236D107C9F70E9438
:10011000C2030C942C060C940000AF92BF92CF92B5
:10012000DF92EF92FF920F931F93CF93DF936C01B7
:100130007B018B01040F151FEB015E01AE18BF0898
:10014000C017D10759F06991D601ED91FC9101904A
:10015000F081E02DC6010995892B79F7C501DF9162
:10016000CF911F910F91FF90EF90DF90CF90BF90B4
:10017000AF900895FC01538D448D252F30E0842FDE
:1001800090E0821B930B541710F0CF9608950197BF
:100190000895FC01918D828D981761F0A28DAE0FAC
:1001A000BF2FB11D5D968C91928D9F5F9F73928F33
:1001B00090E008958FEF9FEF0895FC01918D828D5F
:1001C000981731F0828DE80FF11D858D90E008952C
:1001D0008FEF9FEF0895FC01918D228D892F90E084
:1001E000805C9F4F821B91098F739927089582E845
:1001F00091E00E94EB0021E0892B09F420E0822F9E
:10020000089580E090E0892B29F00E94F700811189
:100210000C9400000895FC01A48DA80FB92FB11D06
:10022000A35ABF4F2C91848D90E001968F7399272C
:10023000848FA689B7892C93A089B1898C9183700A
:1002400080648C93938D848D981306C00288F38903
:10025000E02D80818F7D80830895EF92FF920F9330
:100260001F93CF93DF93EC0181E0888F9B8D8C8D62
:1002700098131AC0E889F989808185FF15C09FB756
:10028000F894EE89FF896083E889F9898081837019
:10029000806480839FBF81E090E0DF91CF911F91C8
:1002A0000F91FF90EF900895F62E0B8D10E00F5FE9
:1002B0001F4F0F731127E02E8C8D8E110CC00FB6BF
:1002C00007FCFACFE889F989808185FFF5CFCE0157
:1002D0000E940B01F1CFEB8DEC0FFD2FF11DE35AC6
:1002E000FF4FF0829FB7F8940B8FEA89FB898081DA
:1002F0008062CFCFCF93DF93EC01888D8823B9F054
:10030000AA89BB89E889F9898C9185FD03C0808120
:1003100086FD0DC00FB607FCF7CF8C9185FFF2CF9D
:10032000808185FFEDCFCE010E940B01E9CFDF91E7
:10033000CF910895833081F028F4813099F0823094
:10034000A9F008958730A9F08830C9F08430B1F45D
:10035000809180008F7D03C0809180008F77809393
:100360008000089584B58F7784BD089584B58F7D0E
:10037000FBCF8091B0008F778093B000089580917B
:10038000B0008F7DF9CF1F93CF93DF93282F30E0FC
:10039000F901E458FF4F8491F901E057FF4FD491E0
:1003A000F901E255FF4FC491CC23A9F0162F81111A
:1003B0000E949A01EC2FF0E0EE0FFF1FEC55FF4F6B
:1003C000A591B4918FB7F894EC91111108C0D09514
:1003D000DE23DC938FBFDF91CF911F910895DE2B39
:1003E000F8CF9091000189130BC0E2ECF0E0E491AA
:1003F0009FEF90930001E13049F028F0E23061F086
:1004000060E00C94C30110926E00FACF90916F00DF
:100410009D7F90936F00F4CF909170009D7F90939B
:10042000700091E09093B0009091B100987F94603B
:100430009093B1001092B300E3CFCF93DF9390E09D
:10044000FC01E057FF4F249182559F4FFC0184919E
:100450008823D1F090E0880F991FFC01E859FF4FE5
:10046000A591B491FC01EC55FF4FC591D491611158
:100470000EC09FB7F8948C91E22FE0958E238C9359
:100480002881E223E8839FBFDF91CF9108958FB742
:10049000F894EC91E22BEC938FBFF6CF3FB7F89432
:1004A00080916B0190916C01A0916D01B0916E01F2
:1004B00026B5A89B05C02F3F19F00196A11DB11DBF
:1004C0003FBFBA2FA92F982F8827BC01CD01620FFB
:1004D000711D811D911D42E0660F771F881F991FB6
:1004E0004A95D1F708958F929F92AF92BF92CF9283
:1004F000DF92EF92FF920E944E024B015C0188EE68
:10050000C82E83E0D82EE12CF12C0E944E026819EF
:1005100079098A099B09683E734081059105A8F312
:1005200021E0C21AD108E108F10888EE880E83E0C4
:10053000981EA11CB11CC114D104E104F10429F7D7
:10054000FF90EF90DF90CF90BF90AF909F908F90F3
:100550000895FC0101900020E9F73197AF01481B95
:10056000590BBC0182E891E00C948D00CF93DF938E
:100570000E94A902EC0183E191E00E94A9028C0F84
:100580009D1FDF91CF9108951F920F920FB60F928A
:1005900011242F933F934F935F936F937F938F9388
:1005A0009F93AF93BF93EF93FF93809174019091CA
:1005B0007501A0917601B0917701892B8A2B8B2B45
:1005C000D1F190916F01E0917001F0917101808102
:1005D000892780838091740190917501A0917601A3
:1005E000B0917701181619061A061B069CF4809123
:1005F000740190917501A0917601B09177010197F6
:10060000A109B1098093740190937501A0937601BB
:10061000B0937701FF91EF91BF91AF919F918F912F
:100620007F916F915F914F913F912F910F900FBEEE
:100630000F901F901895809100010E94F101EACF60
:100640001F920F920FB60F9211242F933F934F9347
:100650005F936F937F938F939F93AF93BF93EF932A
:10066000FF9382E891E00E940B01FF91EF91BF910F
:10067000AF919F918F917F916F915F914F913F913A
:100680002F910F900FBE0F901F9018951F920F92F1
:100690000FB60F9211242F938F939F93EF93FF9395
:1006A000E0919201F09193018081E0919801F091A5
:1006B000990182FD1BC0908180919B018F5F8F7398
:1006C00020919C01821741F0E0919B01F0E0EE57F0
:1006D000FE4F958F80939B01FF91EF919F918F919A
:1006E0002F910F900FBE0F901F9018958081F4CF1F
:1006F0001F920F920FB60F9211242F933F938F9357
:100700009F93AF93BF938091670190916801A091EF
:100710006901B0916A013091660123E0230F2D3702
:1007200058F50196A11DB11D2093660180936701C4
:1007300090936801A0936901B0936A0180916B0165
:1007400090916C01A0916D01B0916E010196A11D77
:10075000B11D80936B0190936C01A0936D01B093D8
:100760006E01BF91AF919F918F913F912F910F900B
:100770000FBE0F901F90189526E8230F0296A11D1B
:10078000B11DD2CFCF93DF93CDB7DEB7A1970FB610
:10079000F894DEBF0FBECDBF789484B5826084BD6F
:1007A00084B5816084BD85B5826085BD85B5816075
:1007B00085BD80916E00816080936E0010928100F3
:1007C00080918100826080938100809181008160AE
:1007D000809381008091800081608093800080916F
:1007E000B10084608093B1008091B00081608093FB
:1007F000B00080917A00846080937A0080917A00C2
:10080000826080937A0080917A00816080937A0080
:1008100080917A00806880937A001092C10060E035
:1008200082E00E941D0261E08AE00E941D0261E0F8
:1008300087E00E941D02E0919201F091930182E015
:100840008083E0918E01F0918F011082E091900100
:10085000F09191018FEC808310929A01E0919601C2
:10086000F091970186E08083E0919401F0919501E9
:10087000808180618083E0919401F0919501808175
:1008800088608083E0919401F09195018081806877
:100890008083E0919401F091950180818F7D808328
:1008A00086E191E00E94B6020E9473024AE0442E63
:1008B000512C612C712C52EC252E50E0352E8824C1
:1008C0008A94982C5401EEE7F0E08491E2E9F0E09C
:1008D0000491E0EBF0E01491112309F485C081113B
:1008E0000E949A01E12FF0E0EE0FFF1FEE58FF4F3C
:1008F000A591B4918C91082391E080E009F490E0F7
:1009000090938001809381018BE291E00E94A90283
:10091000C0908001D09081010D2C000CEE08FF08E2
:10092000F7FE65C06DE282E891E00E942D0122276A
:100930003327A9012C193D094E095F0919A28E011F
:100940000F5D1F4FCA01B901A30192010E94040665
:10095000605DF80162938F01211531054105510554
:1009600089F70115110519F0C8010E94A90283E158
:1009700091E00E94A90280918001909181010197EC
:1009800009F009C18BE391E00E94B60261E08AE0C0
:100990000E94C30180910001873009F03EC0F1013F
:1009A000149117FDDDC061E087E00E941D02112354
:1009B00009F4A7C0123009F0B8C08091B100887F57
:1009C00083608093B10089EF8093B30080927401BB
:1009D00090927501A0927601B0927701809170009B
:1009E000826080937000BCC090E080E089CFA70156
:1009F000960119A28E010F5D1F4FCA01B901A30113
:100A000092010E940406605DF80162938F01211536
:100A100031054105510589F7A4CF8F3F09F0A0C0EA
:100A200087E080930001F10114911F3F09F498C001
:100A3000113029F150F0123009F440C017FD90C078
:100A400061E087E00E941D02B5CF14BC15BC84B5DF
:100A5000826084BD85B5816085BDE5EBF0E0849161
:100A6000E82FF0E0EE0FFF1FEC55FF4F85919491BA
:100A7000E7E9F0E084918093730110E094CF109245
:100A800080001092810080918100886080938100B5
:100A900080918100816080938100E5EBF0E084919A
:100AA000E82FF0E0EE0FFF1FEC55FF4F859194917A
:100AB000E7E9F0E084918093720175CF1092B00065
:100AC0001092B1008091B00082608093B00080915C
:100AD000B10081608093B100E5EBF0E08491E82FF4
:100AE000F0E0EE0FFF1FEC55FF4F8591949190932E
:100AF000710180937001E7E9F0E0849180936F01C8
:100B000052CF85B5887F836085BD8CE787BD809295
:100B10007C0190927D01A0927E01B0927F01809134
:100B20006E00826080936E001BC0113061F5809171
:100B30008100887F8160809381008FE39FE19093A3
:100B40008900809388008092780190927901A09228
:100B50007A01B0927B0180916F00826080936F0078
:100B600085E191E00E94B6020E947302E0E0F0E0AD
:100B7000EF2B09F4A8CE0E94F700882309F4A3CE36
:100B80000E940000A0CE123021F01111E9CF8FE3B6
:100B9000BDCF8FE319CF8BE491E00E94B60260E0F5
:100BA0008AE00E94C30187E00E94F101D9CFE2E808
:100BB000F1E01382128288EE93E0A0E0B0E084833B
:100BC0009583A683B78385E091E09183808385EC4C
:100BD00090E09587848784EC90E09787868780EC07
:100BE00090E0918B808B81EC90E0938B828B82ECF8
:100BF00090E0958B848B86EC90E0978B868B118EA2
:100C0000128E138E148E0895A1E21A2EAA1BBB1BFE
:100C1000FD010DC0AA1FBB1FEE1FFF1FA217B307C8
:100C2000E407F50720F0A21BB30BE40BF50B661FDE
:100C3000771F881F991F1A9469F7609570958095A2
:100C400090959B01AC01BD01CF010895EE0FFF1FF0
:0C0C50000590F491E02D0994F894FFCF7A
:100C5C00FF000000002D018D00BA007A01EB00C9E5
:100C6C0000DD000D0A004D656E646574656B73697B
:100C7C002047617320426F636F72004E696C61692B
:100C8C002053656E736F72203A20004164612047D7
:100C9C00617320426F636F72212100416D616E6E32
:100CAC0020546964616B2041646120476173204268
:060CBC006F636F7200007F
:00000001FF
